:0600000080316A280000B7
:0800080083018031200077081C
:10001000A0007808A1007908A2007A08A300850151
:1000200091308400801E1628911A1F282008F7009E
:100030002108F8002208F9002308FA00090080319D
:100040003228911E212823001D082000A40023002F
:100050001908F8002000A41C302823001D121D16CA
:10006000200008007408003A03193D28013A0319DA
:100070004328033A03194C28672821207808F20006
:100080000130F400672821207808F3007308730713
:10009000F3070230F4006728F5307507840020303C
:1000A00085000318850A05082600AF000408AE0085
:1000B0002000212026002F0885002E0884007808C3
:1000C0008000F50A73087502031976142000911256
:1000D0008031162855303C008F00AA308F000F1059
:1000E0001530A40014303D00A00055303C008F00B6
:1000F000AA308F000F14F030210099002000A401D5
:1001000023009F158A309B0000309C00A6309E0083
:1001100090309D008C018E0120009F0121009116DE
:10012000C0308B048C120C120E128E110C110E109A
:100130008E100E11F401F5017610761C9D28F40145
:10014000F50176102600A501730825020318C428BE
:1001500005302507F8002030FA000318FA0A78085D
:10016000A8007A08A900F530250784002030850012
:100170000318850A0008AA002908850028088400B9
:100180002A088000A50AA4287308F1007208F0006C
:100190007008F83E0318882D083E20008B2D26009D
:1001A000A901A801A908031D6529710828020318DF
:1001B00065290530280784002030293D8500000886
:1001C000AA00AA1FEB2822008C16E628E728E828B8
:1001D0008C12F028260022008C16EE288C12F028B3
:1001E00026002A1FFB2822008C16F628F728F8285C
:1001F0008C120029260022008C16FE288C12002961
:100200002600AA1E0B2922008C1606290729082978
:100210008C121029260022008C160E298C1210290F
:1002200026002A1E1B2922008C1616291729182998
:100230008C122029260022008C161E298C122029BF
:100240002600AA1D2B2922008C16262927292829B9
:100250008C123029260022008C162E298C1230296F
:1002600026002A1D3B2922008C16362937293829D9
:100270008C124029260022008C163E298C1240291F
:100280002600AA1C4B2922008C16462947294829FA
:100290008C125029260022008C164E298C125029CF
:1002A00026002A1C5B2922008C165629572958291A
:1002B0008C126029260022008C165E298C1260297F
:1002C0002600A80A0319A90AD228882D2600A90108
:1002D000A801A908031DFC29710828020318FC299C
:1002E0000530280784002030293D85000008AA0039
:1002F000AA1F822922000C167D297E297F290C1233
:100300008729260022000C1685290C128729260031
:100310002A1F922922000C168D298E298F290C1252
:100320009729260022000C1695290C1297292600E1
:10033000AA1EA22922000C169D299E299F290C1273
:10034000A729260022000C16A5290C12A729260091
:100350002A1EB22922000C16AD29AE29AF290C1293
:10036000B729260022000C16B5290C12B729260041
:10037000AA1DC22922000C16BD29BE29BF290C12B4
:10038000C729260022000C16C5290C12C7292600F1
:100390002A1DD22922000C16CD29CE29CF290C12D4
:1003A000D729260022000C16D5290C12D7292600A1
:1003B000AA1CE22922000C16DD29DE29DF290C12F5
:1003C000E729260022000C16E5290C12E729260051
:1003D0002A1CF22922000C16ED29EE29EF290C1215
:1003E000F729260022000C16F5290C12F729260001
:1003F000A80A0319A90A6929882D2600A901A801BC
:10040000A908031D932A710828020318932A0530AE
:10041000280784002030293D85000008AA00AA1F73
:10042000192A22000E16142A152A162A0E121E2A1E
:10043000260022000E161C2A0E121E2A26002A1F33
:10044000292A22000E16242A252A262A0E122E2AAE
:10045000260022000E162C2A0E122E2A2600AA1E74
:10046000392A22000E16342A352A362A0E123E2A3E
:10047000260022000E163C2A0E123E2A26002A1EB4
:10048000492A22000E16442A452A462A0E124E2ACE
:10049000260022000E164C2A0E124E2A2600AA1DF5
:1004A000592A22000E16542A552A562A0E125E2A5E
:1004B000260022000E165C2A0E125E2A26002A1D35
:1004C000692A22000E16642A652A662A0E126E2AEE
:1004D000260022000E166C2A0E126E2A2600AA1C76
:1004E000792A22000E16742A752A762A0E127E2A7E
:1004F000260022000E167C2A0E127E2A26002A1CB6
:10050000892A22000E16842A852A862A0E128E2A0D
:10051000260022000E168C2A0E128E2A2600A80A09
:100520000319A90A002A882D2600A901A801A908F3
:10053000031D2A2B7108280203182A2B05302807CF
:1005400084002030293D85000008AA00AA1FB02A97
:1005500022008E15AB2AAC2AAD2A8E11B52A2600B0
:1005600022008E15B32A8E11B52A26002A1FC02A12
:1005700022008E15BB2ABC2ABD2A8E11C52A260050
:1005800022008E15C32A8E11C52A2600AA1ED02A43
:1005900022008E15CB2ACC2ACD2A8E11D52A2600F0
:1005A00022008E15D32A8E11D52A26002A1EE02A73
:1005B00022008E15DB2ADC2ADD2A8E11E52A260090
:1005C00022008E15E32A8E11E52A2600AA1DF02AA4
:1005D00022008E15EB2AEC2AED2A8E11F52A260030
:1005E00022008E15F32A8E11F52A26002A1D002BD3
:1005F00022008E15FB2AFC2AFD2A8E11052B2600CF
:1006000022008E15032B8E11052B2600AA1C102B01
:1006100022008E150B2B0C2B0D2B8E11152B26006B
:1006200022008E15132B8E11152B26002A1C202B31
:1006300022008E151B2B1C2B1D2B8E11252B26000B
:1006400022008E15232B8E11252B2600A80A0319B4
:10065000A90A972A882D2600A901A801A908031D27
:10066000C12B710828020318C12B0530280784000C
:100670002030293D85000008AA00AA1F472B220030
:100680000C15422B432B442B0C114C2B2600220023
:100690000C154A2B0C114C2B26002A1F572B22001D
:1006A0000C15522B532B542B0C115C2B26002200C3
:1006B0000C155A2B0C115C2B2600AA1E672B22004E
:1006C0000C15622B632B642B0C116C2B2600220063
:1006D0000C156A2B0C116C2B26002A1E772B22007E
:1006E0000C15722B732B742B0C117C2B2600220003
:1006F0000C157A2B0C117C2B2600AA1D872B2200AF
:100700000C15822B832B842B0C118C2B26002200A2
:100710000C158A2B0C118C2B26002A1D972B2200DE
:100720000C15922B932B942B0C119C2B2600220042
:100730000C159A2B0C119C2B2600AA1CA72B22000F
:100740000C15A22BA32BA42B0C11AC2B26002200E2
:100750000C15AA2B0C11AC2B26002A1CB72B22003F
:100760000C15B22BB32BB42B0C11BC2B2600220082
:100770000C15BA2B0C11BC2B2600A80A0319A90AC8
:100780002E2B882D2600A901A801A908031D582C8D
:10079000710828020318582C0530280784002030DF
:1007A000293D85000008AA00AA1FDE2B22000E1496
:1007B000D92BDA2BDB2B0E10E32B260022000E1494
:1007C000E12B0E10E32B26002A1FEE2B22000E1425
:1007D000E92BEA2BEB2B0E10F32B260022000E1434
:1007E000F12B0E10F32B2600AA1EFE2B22000E1456
:1007F000F92BFA2BFB2B0E10032C260022000E14D3
:10080000012C0E10032C26002A1E0E2C22000E1482
:10081000092C0A2C0B2C0E10132C260022000E146F
:10082000112C0E10132C2600AA1D1E2C22000E14B3
:10083000192C1A2C1B2C0E10232C260022000E140F
:10084000212C0E10232C26002A1D2E2C22000E14E3
:10085000292C2A2C2B2C0E10332C260022000E14AF
:10086000312C0E10332C2600AA1C3E2C22000E1414
:10087000392C3A2C3B2C0E10432C260022000E144F
:10088000412C0E10432C26002A1C4E2C22000E1444
:10089000492C4A2C4B2C0E10532C260022000E14EF
:1008A000512C0E10532C2600A80A0319A90AC52B97
:1008B000882D2600A901A801A908031DEF2C7108A5
:1008C00028020318EF2C0530280784002030293D2A
:1008D00085000008AA00AA1F752C22008E14702C17
:1008E000712C722C8E107A2C260022008E14782CFB
:1008F0008E107A2C26002A1F852C22008E14802C24
:10090000812C822C8E108A2C260022008E14882C9A
:100910008E108A2C2600AA1E952C22008E14902C54
:10092000912C922C8E109A2C260022008E14982C3A
:100930008E109A2C26002A1EA52C22008E14A02C84
:10094000A12CA22C8E10AA2C260022008E14A82CDA
:100950008E10AA2C2600AA1DB52C22008E14B02CB5
:10096000B12CB22C8E10BA2C260022008E14B82C7A
:100970008E10BA2C26002A1DC52C22008E14C02CE5
:10098000C12CC22C8E10CA2C260022008E14C82C1A
:100990008E10CA2C2600AA1CD52C22008E14D02C16
:1009A000D12CD22C8E10DA2C260022008E14D82CBA
:1009B0008E10DA2C26002A1CE52C22008E14E02C46
:1009C000E12CE22C8E10EA2C260022008E14E82C5A
:1009D0008E10EA2C2600A80A0319A90A5C2C882D7F
:1009E0002600A901A801A908031D862D7108280267
:1009F0000318862D0530280784002030293D850006
:100A00000008AA00AA1F0C2D22000E15072D082D84
:100A1000092D0E11112D260022000E150F2D0E117D
:100A2000112D26002A1F1C2D22000E15172D182D02
:100A3000192D0E11212D260022000E151F2D0E112D
:100A4000212D2600AA1E2C2D22000E15272D282D23
:100A5000292D0E11312D260022000E152F2D0E11DD
:100A6000312D26002A1E3C2D22000E15372D382D43
:100A7000392D0E11412D260022000E153F2D0E118D
:100A8000412D2600AA1D4C2D22000E15472D482D64
:100A9000492D0E11512D260022000E154F2D0E113D
:100AA000512D26002A1D5C2D22000E15572D582D84
:100AB000592D0E11612D260022000E155F2D0E11ED
:100AC000612D2600AA1C6C2D22000E15672D682DA5
:100AD000692D0E11712D260022000E156F2D0E119D
:100AE000712D26002A1C7C2D22000E15772D782DC5
:100AF000792D0E11812D260022000E157F2D0E114D
:100B0000812D2600A80A0319A90AF32C882D260096
:100B100021009D2863000A148A100A158207CF2835
:0E0B20006629FD29942A2B2BC22B592CF02C70
:020000040001F9
:04000E004439FF1E54
:00000001FF
;PIC16F1704
;CRC=FFFC  CREATED="19-May-16 22:36"
